:020000020000FC
:1000000009C02AC033C036C033C043C044C045C055
:1000100046C047C00FE90DBF789401E005BF00E47A
:100020000BBF02E009BF20E002E407B9379A359818
:1000300033983298319830983FEF343508F402C045
:1000400030E4FBCF01E006BF01E80FBD04E003BFD1
:1000500001E007BBFFCFFCCF16B7113009F003C09A
:1000600005E006BF189501E006BF18950000189539
:10007000000018952395231709F0189520E016B76E
:10008000113009F003C003E006BF189501E006BF78
:1000900018950000189500001895000018950000AC
:0600A00018950000189500
:00000001FF
